{
  "_format": "hh-sol-artifact-1",
  "contractName": "WithdrawableControlledNFTFactory",
  "sourceName": "contracts/WithdrawableControlledNFTFactory.sol",
  "abi": [
    {
      "inputs": [
        {
          "internalType": "string",
          "name": "uri",
          "type": "string"
        }
      ],
      "stateMutability": "nonpayable",
      "type": "constructor"
    },
    {
      "anonymous": false,
      "inputs": [
        {
          "indexed": true,
          "internalType": "address",
          "name": "account",
          "type": "address"
        },
        {
          "indexed": true,
          "internalType": "address",
          "name": "operator",
          "type": "address"
        },
        {
          "indexed": false,
          "internalType": "bool",
          "name": "approved",
          "type": "bool"
        }
      ],
      "name": "ApprovalForAll",
      "type": "event"
    },
    {
      "anonymous": false,
      "inputs": [
        {
          "indexed": false,
          "internalType": "address",
          "name": "account",
          "type": "address"
        }
      ],
      "name": "Paused",
      "type": "event"
    },
    {
      "anonymous": false,
      "inputs": [
        {
          "indexed": true,
          "internalType": "bytes32",
          "name": "role",
          "type": "bytes32"
        },
        {
          "indexed": true,
          "internalType": "bytes32",
          "name": "previousAdminRole",
          "type": "bytes32"
        },
        {
          "indexed": true,
          "internalType": "bytes32",
          "name": "newAdminRole",
          "type": "bytes32"
        }
      ],
      "name": "RoleAdminChanged",
      "type": "event"
    },
    {
      "anonymous": false,
      "inputs": [
        {
          "indexed": true,
          "internalType": "bytes32",
          "name": "role",
          "type": "bytes32"
        },
        {
          "indexed": true,
          "internalType": "address",
          "name": "account",
          "type": "address"
        },
        {
          "indexed": true,
          "internalType": "address",
          "name": "sender",
          "type": "address"
        }
      ],
      "name": "RoleGranted",
      "type": "event"
    },
    {
      "anonymous": false,
      "inputs": [
        {
          "indexed": true,
          "internalType": "bytes32",
          "name": "role",
          "type": "bytes32"
        },
        {
          "indexed": true,
          "internalType": "address",
          "name": "account",
          "type": "address"
        },
        {
          "indexed": true,
          "internalType": "address",
          "name": "sender",
          "type": "address"
        }
      ],
      "name": "RoleRevoked",
      "type": "event"
    },
    {
      "anonymous": false,
      "inputs": [
        {
          "indexed": true,
          "internalType": "address",
          "name": "operator",
          "type": "address"
        },
        {
          "indexed": true,
          "internalType": "address",
          "name": "from",
          "type": "address"
        },
        {
          "indexed": true,
          "internalType": "address",
          "name": "to",
          "type": "address"
        },
        {
          "indexed": false,
          "internalType": "uint256[]",
          "name": "ids",
          "type": "uint256[]"
        },
        {
          "indexed": false,
          "internalType": "uint256[]",
          "name": "values",
          "type": "uint256[]"
        }
      ],
      "name": "TransferBatch",
      "type": "event"
    },
    {
      "anonymous": false,
      "inputs": [
        {
          "indexed": true,
          "internalType": "address",
          "name": "operator",
          "type": "address"
        },
        {
          "indexed": true,
          "internalType": "address",
          "name": "from",
          "type": "address"
        },
        {
          "indexed": true,
          "internalType": "address",
          "name": "to",
          "type": "address"
        },
        {
          "indexed": false,
          "internalType": "uint256",
          "name": "id",
          "type": "uint256"
        },
        {
          "indexed": false,
          "internalType": "uint256",
          "name": "value",
          "type": "uint256"
        }
      ],
      "name": "TransferSingle",
      "type": "event"
    },
    {
      "anonymous": false,
      "inputs": [
        {
          "indexed": false,
          "internalType": "string",
          "name": "value",
          "type": "string"
        },
        {
          "indexed": true,
          "internalType": "uint256",
          "name": "id",
          "type": "uint256"
        }
      ],
      "name": "URI",
      "type": "event"
    },
    {
      "anonymous": false,
      "inputs": [
        {
          "indexed": false,
          "internalType": "address",
          "name": "account",
          "type": "address"
        }
      ],
      "name": "Unpaused",
      "type": "event"
    },
    {
      "inputs": [],
      "name": "DEFAULT_ADMIN_ROLE",
      "outputs": [
        {
          "internalType": "bytes32",
          "name": "",
          "type": "bytes32"
        }
      ],
      "stateMutability": "view",
      "type": "function"
    },
    {
      "inputs": [],
      "name": "MINTER_ROLE",
      "outputs": [
        {
          "internalType": "bytes32",
          "name": "",
          "type": "bytes32"
        }
      ],
      "stateMutability": "view",
      "type": "function"
    },
    {
      "inputs": [],
      "name": "PAUSER_ROLE",
      "outputs": [
        {
          "internalType": "bytes32",
          "name": "",
          "type": "bytes32"
        }
      ],
      "stateMutability": "view",
      "type": "function"
    },
    {
      "inputs": [
        {
          "internalType": "address",
          "name": "account",
          "type": "address"
        },
        {
          "internalType": "uint256",
          "name": "id",
          "type": "uint256"
        }
      ],
      "name": "balanceOf",
      "outputs": [
        {
          "internalType": "uint256",
          "name": "",
          "type": "uint256"
        }
      ],
      "stateMutability": "view",
      "type": "function"
    },
    {
      "inputs": [
        {
          "internalType": "address[]",
          "name": "accounts",
          "type": "address[]"
        },
        {
          "internalType": "uint256[]",
          "name": "ids",
          "type": "uint256[]"
        }
      ],
      "name": "balanceOfBatch",
      "outputs": [
        {
          "internalType": "uint256[]",
          "name": "",
          "type": "uint256[]"
        }
      ],
      "stateMutability": "view",
      "type": "function"
    },
    {
      "inputs": [
        {
          "internalType": "address",
          "name": "account",
          "type": "address"
        },
        {
          "internalType": "uint256",
          "name": "id",
          "type": "uint256"
        },
        {
          "internalType": "uint256",
          "name": "value",
          "type": "uint256"
        }
      ],
      "name": "burn",
      "outputs": [],
      "stateMutability": "nonpayable",
      "type": "function"
    },
    {
      "inputs": [
        {
          "internalType": "address",
          "name": "account",
          "type": "address"
        },
        {
          "internalType": "uint256[]",
          "name": "ids",
          "type": "uint256[]"
        },
        {
          "internalType": "uint256[]",
          "name": "values",
          "type": "uint256[]"
        }
      ],
      "name": "burnBatch",
      "outputs": [],
      "stateMutability": "nonpayable",
      "type": "function"
    },
    {
      "inputs": [
        {
          "internalType": "bytes32",
          "name": "role",
          "type": "bytes32"
        }
      ],
      "name": "getRoleAdmin",
      "outputs": [
        {
          "internalType": "bytes32",
          "name": "",
          "type": "bytes32"
        }
      ],
      "stateMutability": "view",
      "type": "function"
    },
    {
      "inputs": [
        {
          "internalType": "bytes32",
          "name": "role",
          "type": "bytes32"
        },
        {
          "internalType": "uint256",
          "name": "index",
          "type": "uint256"
        }
      ],
      "name": "getRoleMember",
      "outputs": [
        {
          "internalType": "address",
          "name": "",
          "type": "address"
        }
      ],
      "stateMutability": "view",
      "type": "function"
    },
    {
      "inputs": [
        {
          "internalType": "bytes32",
          "name": "role",
          "type": "bytes32"
        }
      ],
      "name": "getRoleMemberCount",
      "outputs": [
        {
          "internalType": "uint256",
          "name": "",
          "type": "uint256"
        }
      ],
      "stateMutability": "view",
      "type": "function"
    },
    {
      "inputs": [
        {
          "internalType": "bytes32",
          "name": "role",
          "type": "bytes32"
        },
        {
          "internalType": "address",
          "name": "account",
          "type": "address"
        }
      ],
      "name": "grantRole",
      "outputs": [],
      "stateMutability": "nonpayable",
      "type": "function"
    },
    {
      "inputs": [
        {
          "internalType": "bytes32",
          "name": "role",
          "type": "bytes32"
        },
        {
          "internalType": "address",
          "name": "account",
          "type": "address"
        }
      ],
      "name": "hasRole",
      "outputs": [
        {
          "internalType": "bool",
          "name": "",
          "type": "bool"
        }
      ],
      "stateMutability": "view",
      "type": "function"
    },
    {
      "inputs": [
        {
          "internalType": "address",
          "name": "account",
          "type": "address"
        },
        {
          "internalType": "address",
          "name": "operator",
          "type": "address"
        }
      ],
      "name": "isApprovedForAll",
      "outputs": [
        {
          "internalType": "bool",
          "name": "",
          "type": "bool"
        }
      ],
      "stateMutability": "view",
      "type": "function"
    },
    {
      "inputs": [
        {
          "internalType": "address",
          "name": "to",
          "type": "address"
        },
        {
          "internalType": "uint256",
          "name": "id",
          "type": "uint256"
        },
        {
          "internalType": "uint256",
          "name": "amount",
          "type": "uint256"
        },
        {
          "internalType": "bytes",
          "name": "data",
          "type": "bytes"
        }
      ],
      "name": "mint",
      "outputs": [],
      "stateMutability": "nonpayable",
      "type": "function"
    },
    {
      "inputs": [
        {
          "internalType": "address",
          "name": "to",
          "type": "address"
        },
        {
          "internalType": "uint256[]",
          "name": "ids",
          "type": "uint256[]"
        },
        {
          "internalType": "uint256[]",
          "name": "amounts",
          "type": "uint256[]"
        },
        {
          "internalType": "bytes",
          "name": "data",
          "type": "bytes"
        }
      ],
      "name": "mintBatch",
      "outputs": [],
      "stateMutability": "nonpayable",
      "type": "function"
    },
    {
      "inputs": [],
      "name": "pause",
      "outputs": [],
      "stateMutability": "nonpayable",
      "type": "function"
    },
    {
      "inputs": [],
      "name": "paused",
      "outputs": [
        {
          "internalType": "bool",
          "name": "",
          "type": "bool"
        }
      ],
      "stateMutability": "view",
      "type": "function"
    },
    {
      "inputs": [
        {
          "internalType": "bytes32",
          "name": "role",
          "type": "bytes32"
        },
        {
          "internalType": "address",
          "name": "account",
          "type": "address"
        }
      ],
      "name": "renounceRole",
      "outputs": [],
      "stateMutability": "nonpayable",
      "type": "function"
    },
    {
      "inputs": [
        {
          "internalType": "bytes32",
          "name": "role",
          "type": "bytes32"
        },
        {
          "internalType": "address",
          "name": "account",
          "type": "address"
        }
      ],
      "name": "revokeRole",
      "outputs": [],
      "stateMutability": "nonpayable",
      "type": "function"
    },
    {
      "inputs": [
        {
          "internalType": "address",
          "name": "from",
          "type": "address"
        },
        {
          "internalType": "address",
          "name": "to",
          "type": "address"
        },
        {
          "internalType": "uint256[]",
          "name": "ids",
          "type": "uint256[]"
        },
        {
          "internalType": "uint256[]",
          "name": "amounts",
          "type": "uint256[]"
        },
        {
          "internalType": "bytes",
          "name": "data",
          "type": "bytes"
        }
      ],
      "name": "safeBatchTransferFrom",
      "outputs": [],
      "stateMutability": "nonpayable",
      "type": "function"
    },
    {
      "inputs": [
        {
          "internalType": "address",
          "name": "from",
          "type": "address"
        },
        {
          "internalType": "address",
          "name": "to",
          "type": "address"
        },
        {
          "internalType": "uint256",
          "name": "id",
          "type": "uint256"
        },
        {
          "internalType": "uint256",
          "name": "amount",
          "type": "uint256"
        },
        {
          "internalType": "bytes",
          "name": "data",
          "type": "bytes"
        }
      ],
      "name": "safeTransferFrom",
      "outputs": [],
      "stateMutability": "nonpayable",
      "type": "function"
    },
    {
      "inputs": [
        {
          "internalType": "address",
          "name": "operator",
          "type": "address"
        },
        {
          "internalType": "bool",
          "name": "approved",
          "type": "bool"
        }
      ],
      "name": "setApprovalForAll",
      "outputs": [],
      "stateMutability": "nonpayable",
      "type": "function"
    },
    {
      "inputs": [
        {
          "internalType": "bytes4",
          "name": "interfaceId",
          "type": "bytes4"
        }
      ],
      "name": "supportsInterface",
      "outputs": [
        {
          "internalType": "bool",
          "name": "",
          "type": "bool"
        }
      ],
      "stateMutability": "view",
      "type": "function"
    },
    {
      "inputs": [],
      "name": "unpause",
      "outputs": [],
      "stateMutability": "nonpayable",
      "type": "function"
    },
    {
      "inputs": [
        {
          "internalType": "uint256",
          "name": "",
          "type": "uint256"
        }
      ],
      "name": "uri",
      "outputs": [
        {
          "internalType": "string",
          "name": "",
          "type": "string"
        }
      ],
      "stateMutability": "view",
      "type": "function"
    }
  ],
  "bytecode": "0x60806040523480156200001157600080fd5b5060405162002eb538038062002eb5833981016040819052620000349162000314565b80806200004181620000c8565b506005805460ff191690556200006260006200005c620000e1565b620000e5565b620000917f9f2df0fed2c77648de5860a4cc508cd0818c85b8b8a1ab4ceeef8d981c8956a66200005c620000e1565b620000c07f65d7a28e3265b37a6474929f336521b332c1681b933f6cb9f3376673440d862a6200005c620000e1565b505062000436565b8051620000dd9060049060208401906200026e565b5050565b3390565b620000fc82826200012860201b62000dc21760201c565b60008281526001602090815260409091206200012391839062000dd062000134821b17901c565b505050565b620000dd828262000154565b60006200014b836001600160a01b038416620001de565b90505b92915050565b6200016082826200022d565b620000dd576000828152602081815260408083206001600160a01b03851684529091529020805460ff191660011790556200019a620000e1565b6001600160a01b0316816001600160a01b0316837f2f8788117e7eff1d82e926ec794901d17c78024a50270940304540a733656f0d60405160405180910390a45050565b6000620001ec838362000256565b62000224575081546001818101845560008481526020808220909301849055845484825282860190935260409020919091556200014e565b5060006200014e565b6000918252602082815260408084206001600160a01b0393909316845291905290205460ff1690565b60009081526001919091016020526040902054151590565b8280546200027c90620003e3565b90600052602060002090601f016020900481019282620002a05760008555620002eb565b82601f10620002bb57805160ff1916838001178555620002eb565b82800160010185558215620002eb579182015b82811115620002eb578251825591602001919060010190620002ce565b50620002f9929150620002fd565b5090565b5b80821115620002f95760008155600101620002fe565b6000602080838503121562000327578182fd5b82516001600160401b03808211156200033e578384fd5b818501915085601f83011262000352578384fd5b81518181111562000367576200036762000420565b604051601f8201601f19168101850183811182821017156200038d576200038d62000420565b6040528181528382018501881015620003a4578586fd5b8592505b81831015620003c75783830185015181840186015291840191620003a8565b81831115620003d857858583830101525b979650505050505050565b600281046001821680620003f857607f821691505b602082108114156200041a57634e487b7160e01b600052602260045260246000fd5b50919050565b634e487b7160e01b600052604160045260246000fd5b612a6f80620004466000396000f3fe608060405234801561001057600080fd5b50600436106101725760003560e01c8063731133e9116100de578063ca15c87311610097578063e63ab1e911610071578063e63ab1e91461031b578063e985e9c514610323578063f242432a14610336578063f5298aca1461034957610172565b8063ca15c873146102ed578063d539139314610300578063d547741f1461030857610172565b8063731133e9146102845780638456cb59146102975780639010d07c1461029f57806391d14854146102bf578063a217fddf146102d2578063a22cb465146102da57610172565b80632f2ff15d116101305780632f2ff15d1461021b57806336568abe1461022e5780633f4ba83a146102415780634e1273f4146102495780635c975abb146102695780636b20c4541461027157610172565b8062fdd58e1461017757806301ffc9a7146101a05780630e89341c146101c05780631f7fdffa146101e0578063248a9ca3146101f55780632eb2c2d614610208575b600080fd5b61018a610185366004611e27565b61035c565b60405161019791906121ae565b60405180910390f35b6101b36101ae366004611fee565b6103b8565b60405161019791906121a3565b6101d36101ce366004611f93565b6103cb565b60405161019791906121b7565b6101f36101ee366004611d58565b61045f565b005b61018a610203366004611f93565b6104e5565b6101f3610216366004611bde565b6104fa565b6101f3610229366004611fab565b610763565b6101f361023c366004611fab565b61078a565b6101f36107ac565b61025c610257366004611ed5565b6107fe565b6040516101979190612162565b6101b361091e565b6101f361027f366004611ce7565b610928565b6101f3610292366004611e82565b61097d565b6101f36109d1565b6102b26102ad366004611fcd565b610a21565b60405161019791906120ab565b6101b36102cd366004611fab565b610a40565b61018a610a69565b6101f36102e8366004611ded565b610a6e565b61018a6102fb366004611f93565b610b3c565b61018a610b53565b6101f3610316366004611fab565b610b77565b61018a610b81565b6101b3610331366004611bac565b610ba5565b6101f3610344366004611c84565b610bd3565b6101f3610357366004611e50565b610d6d565b60006001600160a01b03831661038d5760405162461bcd60e51b815260040161038490612325565b60405180910390fd5b5060008181526002602090815260408083206001600160a01b03861684529091529020545b92915050565b60006103c382610de5565b90505b919050565b6060600480546103da906128f3565b80601f0160208091040260200160405190810160405280929190818152602001828054610406906128f3565b80156104535780601f1061042857610100808354040283529160200191610453565b820191906000526020600020905b81548152906001019060200180831161043657829003601f168201915b50505050509050919050565b61048b7f9f2df0fed2c77648de5860a4cc508cd0818c85b8b8a1ab4ceeef8d981c8956a66102cd610e25565b6104a75760405162461bcd60e51b81526004016103849061259d565b6104b384848484610e29565b5050506001600160a01b031660009081526003602090815260408083203384529091529020805460ff19166001179055565b60009081526020819052604090206001015490565b815183511461051b5760405162461bcd60e51b815260040161038490612790565b6001600160a01b0384166105415760405162461bcd60e51b8152600401610384906124c3565b610549610e25565b6001600160a01b0316856001600160a01b0316148061056f575061056f85610331610e25565b61058b5760405162461bcd60e51b815260040161038490612508565b6000610595610e25565b90506105a5818787878787610fb2565b60005b84518110156106f55760008582815181106105d357634e487b7160e01b600052603260045260246000fd5b6020026020010151905060008583815181106105ff57634e487b7160e01b600052603260045260246000fd5b60209081029190910181015160008481526002835260408082206001600160a01b038e1683529093529190912054909150818110156106505760405162461bcd60e51b8152600401610384906125fa565b61065a82826128dc565b6002600085815260200190815260200160002060008c6001600160a01b03166001600160a01b0316815260200190815260200160002081905550816002600085815260200190815260200160002060008b6001600160a01b03166001600160a01b0316815260200190815260200160002060008282546106da91906128c4565b92505081905550505050806106ee9061292e565b90506105a8565b50846001600160a01b0316866001600160a01b0316826001600160a01b03167f4a39dc06d4c0dbc64b70af90fd698a233a518aa5d07e595d983b8c0526c8f7fb8787604051610745929190612175565b60405180910390a461075b818787878787610fc0565b505050505050565b61076d82826110ce565b60008281526001602052604090206107859082610dd0565b505050565b61079482826110fe565b60008281526001602052604090206107859082611140565b6107d87f65d7a28e3265b37a6474929f336521b332c1681b933f6cb9f3376673440d862a6102cd610e25565b6107f45760405162461bcd60e51b815260040161038490612644565b6107fc611155565b565b606081518351146108215760405162461bcd60e51b815260040161038490612747565b6000835167ffffffffffffffff81111561084b57634e487b7160e01b600052604160045260246000fd5b604051908082528060200260200182016040528015610874578160200160208202803683370190505b50905060005b8451811015610916576108db8582815181106108a657634e487b7160e01b600052603260045260246000fd5b60200260200101518583815181106108ce57634e487b7160e01b600052603260045260246000fd5b602002602001015161035c565b8282815181106108fb57634e487b7160e01b600052603260045260246000fd5b602090810291909101015261090f8161292e565b905061087a565b509392505050565b60055460ff165b90565b610930610e25565b6001600160a01b0316836001600160a01b03161480610956575061095683610331610e25565b6109725760405162461bcd60e51b815260040161038490612400565b6107858383836111c3565b6109a97f9f2df0fed2c77648de5860a4cc508cd0818c85b8b8a1ab4ceeef8d981c8956a66102cd610e25565b6109c55760405162461bcd60e51b81526004016103849061259d565b6104b384848484611384565b6109fd7f65d7a28e3265b37a6474929f336521b332c1681b933f6cb9f3376673440d862a6102cd610e25565b610a195760405162461bcd60e51b8152600401610384906126a1565b6107fc611466565b6000828152600160205260408120610a3990836114c1565b9392505050565b6000918252602082815260408084206001600160a01b0393909316845291905290205460ff1690565b600081565b816001600160a01b0316610a80610e25565b6001600160a01b03161415610aa75760405162461bcd60e51b8152600401610384906126fe565b8060036000610ab4610e25565b6001600160a01b03908116825260208083019390935260409182016000908120918716808252919093529120805460ff191692151592909217909155610af8610e25565b6001600160a01b03167f17307eab39ab6107e8899845ad3d59bd9653f200f220920489ca2b5937696c3183604051610b3091906121a3565b60405180910390a35050565b60008181526001602052604081206103c3906114cd565b7f9f2df0fed2c77648de5860a4cc508cd0818c85b8b8a1ab4ceeef8d981c8956a681565b61079482826114d8565b7f65d7a28e3265b37a6474929f336521b332c1681b933f6cb9f3376673440d862a81565b6001600160a01b03918216600090815260036020908152604080832093909416825291909152205460ff1690565b6001600160a01b038416610bf95760405162461bcd60e51b8152600401610384906124c3565b610c01610e25565b6001600160a01b0316856001600160a01b03161480610c275750610c2785610331610e25565b610c435760405162461bcd60e51b815260040161038490612400565b6000610c4d610e25565b9050610c6d818787610c5e88611500565b610c6788611500565b87610fb2565b60008481526002602090815260408083206001600160a01b038a16845290915290205483811015610cb05760405162461bcd60e51b8152600401610384906125fa565b610cba84826128dc565b60008681526002602090815260408083206001600160a01b038c81168552925280832093909355881681529081208054869290610cf89084906128c4565b92505081905550856001600160a01b0316876001600160a01b0316836001600160a01b03167fc3d58168c5ae7397731d063d5bbf3d657854427343f4c083240f7aacaa2d0f628888604051610d4e929190612868565b60405180910390a4610d64828888888888611559565b50505050505050565b610d75610e25565b6001600160a01b0316836001600160a01b03161480610d9b5750610d9b83610331610e25565b610db75760405162461bcd60e51b815260040161038490612400565b61078583838361162a565b610dcc8282611747565b5050565b6000610a39836001600160a01b0384166117cc565b60006001600160e01b03198216636cdb3d1360e11b1480610e1657506001600160e01b031982166303a24d0760e21b145b806103c357506103c382611816565b3390565b6001600160a01b038416610e4f5760405162461bcd60e51b8152600401610384906127d8565b8151835114610e705760405162461bcd60e51b815260040161038490612790565b6000610e7a610e25565b9050610e8b81600087878787610fb2565b60005b8451811015610f4357838181518110610eb757634e487b7160e01b600052603260045260246000fd5b602002602001015160026000878481518110610ee357634e487b7160e01b600052603260045260246000fd5b602002602001015181526020019081526020016000206000886001600160a01b03166001600160a01b031681526020019081526020016000206000828254610f2b91906128c4565b90915550819050610f3b8161292e565b915050610e8e565b50846001600160a01b031660006001600160a01b0316826001600160a01b03167f4a39dc06d4c0dbc64b70af90fd698a233a518aa5d07e595d983b8c0526c8f7fb8787604051610f94929190612175565b60405180910390a4610fab81600087878787610fc0565b5050505050565b61075b86868686868661183b565b610fd2846001600160a01b031661186e565b1561075b5760405163bc197c8160e01b81526001600160a01b0385169063bc197c819061100b90899089908890889088906004016120bf565b602060405180830381600087803b15801561102557600080fd5b505af1925050508015611055575060408051601f3d908101601f191682019092526110529181019061200a565b60015b61109e5761106161297b565b8061106c5750611086565b8060405162461bcd60e51b815260040161038491906121b7565b60405162461bcd60e51b8152600401610384906121ca565b6001600160e01b0319811663bc197c8160e01b14610d645760405162461bcd60e51b815260040161038490612260565b6110e26110da836104e5565b6102cd610e25565b610dc25760405162461bcd60e51b8152600401610384906122a8565b611106610e25565b6001600160a01b0316816001600160a01b0316146111365760405162461bcd60e51b815260040161038490612819565b610dcc8282611874565b6000610a39836001600160a01b0384166118f7565b61115d61091e565b6111795760405162461bcd60e51b8152600401610384906122f7565b6005805460ff191690557f5db9ee0a495bf2e6ff9c91a7834c1ba4fdd244a5e8aa4e537bd38aeae4b073aa6111ac610e25565b6040516111b991906120ab565b60405180910390a1565b6001600160a01b0383166111e95760405162461bcd60e51b81526004016103849061255a565b805182511461120a5760405162461bcd60e51b815260040161038490612790565b6000611214610e25565b905061123481856000868660405180602001604052806000815250610fb2565b60005b835181101561132557600084828151811061126257634e487b7160e01b600052603260045260246000fd5b60200260200101519050600084838151811061128e57634e487b7160e01b600052603260045260246000fd5b60209081029190910181015160008481526002835260408082206001600160a01b038c1683529093529190912054909150818110156112df5760405162461bcd60e51b815260040161038490612370565b6112e982826128dc565b60009384526002602090815260408086206001600160a01b038c168752909152909320929092555081905061131d8161292e565b915050611237565b5060006001600160a01b0316846001600160a01b0316826001600160a01b03167f4a39dc06d4c0dbc64b70af90fd698a233a518aa5d07e595d983b8c0526c8f7fb8686604051611376929190612175565b60405180910390a450505050565b6001600160a01b0384166113aa5760405162461bcd60e51b8152600401610384906127d8565b60006113b4610e25565b90506113c681600087610c5e88611500565b60008481526002602090815260408083206001600160a01b0389168452909152812080548592906113f89084906128c4565b92505081905550846001600160a01b031660006001600160a01b0316826001600160a01b03167fc3d58168c5ae7397731d063d5bbf3d657854427343f4c083240f7aacaa2d0f62878760405161144f929190612868565b60405180910390a4610fab81600087878787611559565b61146e61091e565b1561148b5760405162461bcd60e51b815260040161038490612499565b6005805460ff191660011790557f62e78cea01bee320cd4e420270b5ea74000d11b0c9f74754ebdbfc544b05a2586111ac610e25565b6000610a398383611a14565b60006103c382611a6d565b6114e46110da836104e5565b6111365760405162461bcd60e51b815260040161038490612449565b6040805160018082528183019092526060916000919060208083019080368337019050509050828160008151811061154857634e487b7160e01b600052603260045260246000fd5b602090810291909101015292915050565b61156b846001600160a01b031661186e565b1561075b5760405163f23a6e6160e01b81526001600160a01b0385169063f23a6e61906115a4908990899088908890889060040161211d565b602060405180830381600087803b1580156115be57600080fd5b505af19250505080156115ee575060408051601f3d908101601f191682019092526115eb9181019061200a565b60015b6115fa5761106161297b565b6001600160e01b0319811663f23a6e6160e01b14610d645760405162461bcd60e51b815260040161038490612260565b6001600160a01b0383166116505760405162461bcd60e51b81526004016103849061255a565b600061165a610e25565b905061168a8185600061166c87611500565b61167587611500565b60405180602001604052806000815250610fb2565b60008381526002602090815260408083206001600160a01b0388168452909152902054828110156116cd5760405162461bcd60e51b815260040161038490612370565b6116d783826128dc565b60008581526002602090815260408083206001600160a01b03808b16808652919093528184209490945551919291908516907fc3d58168c5ae7397731d063d5bbf3d657854427343f4c083240f7aacaa2d0f62906117389089908990612868565b60405180910390a45050505050565b6117518282610a40565b610dcc576000828152602081815260408083206001600160a01b03851684529091529020805460ff19166001179055611788610e25565b6001600160a01b0316816001600160a01b0316837f2f8788117e7eff1d82e926ec794901d17c78024a50270940304540a733656f0d60405160405180910390a45050565b60006117d88383611a71565b61180e575081546001818101845560008481526020808220909301849055845484825282860190935260409020919091556103b2565b5060006103b2565b60006001600160e01b03198216635a05180f60e01b14806103c357506103c382611a89565b61184986868686868661075b565b61185161091e565b1561075b5760405162461bcd60e51b8152600401610384906123b4565b3b151590565b61187e8282610a40565b15610dcc576000828152602081815260408083206001600160a01b03851684529091529020805460ff191690556118b3610e25565b6001600160a01b0316816001600160a01b0316837ff6391f5c32d9c69d2a47ea670b442974b53935d1edc7fd64eb21e047a839171b60405160405180910390a45050565b60008181526001830160205260408120548015611a0a57600061191b6001836128dc565b855490915060009061192f906001906128dc565b9050600086600001828154811061195657634e487b7160e01b600052603260045260246000fd5b906000526020600020015490508087600001848154811061198757634e487b7160e01b600052603260045260246000fd5b60009182526020909120015561199e8360016128c4565b600082815260018901602052604090205586548790806119ce57634e487b7160e01b600052603160045260246000fd5b600190038181906000526020600020016000905590558660010160008781526020019081526020016000206000905560019450505050506103b2565b60009150506103b2565b81546000908210611a375760405162461bcd60e51b81526004016103849061221e565b826000018281548110611a5a57634e487b7160e01b600052603260045260246000fd5b9060005260206000200154905092915050565b5490565b60009081526001919091016020526040902054151590565b60006001600160e01b03198216637965db0b60e01b14806103c357506301ffc9a760e01b6001600160e01b03198316146103c3565b80356001600160a01b03811681146103c657600080fd5b600082601f830112611ae5578081fd5b81356020611afa611af5836128a0565b612876565b8281528181019085830183850287018401881015611b16578586fd5b855b85811015611b3457813584529284019290840190600101611b18565b5090979650505050505050565b600082601f830112611b51578081fd5b813567ffffffffffffffff811115611b6b57611b6b61295f565b611b7e601f8201601f1916602001612876565b818152846020838601011115611b92578283fd5b816020850160208301379081016020019190915292915050565b60008060408385031215611bbe578182fd5b611bc783611abe565b9150611bd560208401611abe565b90509250929050565b600080600080600060a08688031215611bf5578081fd5b611bfe86611abe565b9450611c0c60208701611abe565b9350604086013567ffffffffffffffff80821115611c28578283fd5b611c3489838a01611ad5565b94506060880135915080821115611c49578283fd5b611c5589838a01611ad5565b93506080880135915080821115611c6a578283fd5b50611c7788828901611b41565b9150509295509295909350565b600080600080600060a08688031215611c9b578081fd5b611ca486611abe565b9450611cb260208701611abe565b93506040860135925060608601359150608086013567ffffffffffffffff811115611cdb578182fd5b611c7788828901611b41565b600080600060608486031215611cfb578283fd5b611d0484611abe565b9250602084013567ffffffffffffffff80821115611d20578384fd5b611d2c87838801611ad5565b93506040860135915080821115611d41578283fd5b50611d4e86828701611ad5565b9150509250925092565b60008060008060808587031215611d6d578384fd5b611d7685611abe565b9350602085013567ffffffffffffffff80821115611d92578485fd5b611d9e88838901611ad5565b94506040870135915080821115611db3578384fd5b611dbf88838901611ad5565b93506060870135915080821115611dd4578283fd5b50611de187828801611b41565b91505092959194509250565b60008060408385031215611dff578182fd5b611e0883611abe565b915060208301358015158114611e1c578182fd5b809150509250929050565b60008060408385031215611e39578182fd5b611e4283611abe565b946020939093013593505050565b600080600060608486031215611e64578081fd5b611e6d84611abe565b95602085013595506040909401359392505050565b60008060008060808587031215611e97578182fd5b611ea085611abe565b93506020850135925060408501359150606085013567ffffffffffffffff811115611ec9578182fd5b611de187828801611b41565b60008060408385031215611ee7578182fd5b823567ffffffffffffffff80821115611efe578384fd5b818501915085601f830112611f11578384fd5b81356020611f21611af5836128a0565b82815281810190858301838502870184018b1015611f3d578889fd5b8896505b84871015611f6657611f5281611abe565b835260019690960195918301918301611f41565b5096505086013592505080821115611f7c578283fd5b50611f8985828601611ad5565b9150509250929050565b600060208284031215611fa4578081fd5b5035919050565b60008060408385031215611fbd578182fd5b82359150611bd560208401611abe565b60008060408385031215611fdf578182fd5b50508035926020909101359150565b600060208284031215611fff578081fd5b8135610a3981612a20565b60006020828403121561201b578081fd5b8151610a3981612a20565b6000815180845260208085019450808401835b8381101561205557815187529582019590820190600101612039565b509495945050505050565b60008151808452815b8181101561208557602081850181015186830182015201612069565b818111156120965782602083870101525b50601f01601f19169290920160200192915050565b6001600160a01b0391909116815260200190565b6001600160a01b0386811682528516602082015260a0604082018190526000906120eb90830186612026565b82810360608401526120fd8186612026565b905082810360808401526121118185612060565b98975050505050505050565b6001600160a01b03868116825285166020820152604081018490526060810183905260a06080820181905260009061215790830184612060565b979650505050505050565b600060208252610a396020830184612026565b6000604082526121886040830185612026565b828103602084015261219a8185612026565b95945050505050565b901515815260200190565b90815260200190565b600060208252610a396020830184612060565b60208082526034908201527f455243313135353a207472616e7366657220746f206e6f6e20455243313135356040820152732932b1b2b4bb32b91034b6b83632b6b2b73a32b960611b606082015260800190565b60208082526022908201527f456e756d657261626c655365743a20696e646578206f7574206f6620626f756e604082015261647360f01b606082015260800190565b60208082526028908201527f455243313135353a204552433131353552656365697665722072656a656374656040820152676420746f6b656e7360c01b606082015260800190565b6020808252602f908201527f416363657373436f6e74726f6c3a2073656e646572206d75737420626520616e60408201526e0818591b5a5b881d1bc819dc985b9d608a1b606082015260800190565b60208082526014908201527314185d5cd8589b194e881b9bdd081c185d5cd95960621b604082015260600190565b6020808252602b908201527f455243313135353a2062616c616e636520717565727920666f7220746865207a60408201526a65726f206164647265737360a81b606082015260800190565b60208082526024908201527f455243313135353a206275726e20616d6f756e7420657863656564732062616c604082015263616e636560e01b606082015260800190565b6020808252602c908201527f455243313135355061757361626c653a20746f6b656e207472616e736665722060408201526b1dda1a5b19481c185d5cd95960a21b606082015260800190565b60208082526029908201527f455243313135353a2063616c6c6572206973206e6f74206f776e6572206e6f7260408201526808185c1c1c9bdd995960ba1b606082015260800190565b60208082526030908201527f416363657373436f6e74726f6c3a2073656e646572206d75737420626520616e60408201526f2061646d696e20746f207265766f6b6560801b606082015260800190565b60208082526010908201526f14185d5cd8589b194e881c185d5cd95960821b604082015260600190565b60208082526025908201527f455243313135353a207472616e7366657220746f20746865207a65726f206164604082015264647265737360d81b606082015260800190565b60208082526032908201527f455243313135353a207472616e736665722063616c6c6572206973206e6f74206040820152711bdddb995c881b9bdc88185c1c1c9bdd995960721b606082015260800190565b60208082526023908201527f455243313135353a206275726e2066726f6d20746865207a65726f206164647260408201526265737360e81b606082015260800190565b60208082526038908201527f455243313135355072657365744d696e7465725061757365723a206d7573742060408201527f68617665206d696e74657220726f6c6520746f206d696e740000000000000000606082015260800190565b6020808252602a908201527f455243313135353a20696e73756666696369656e742062616c616e636520666f60408201526939103a3930b739b332b960b11b606082015260800190565b6020808252603b908201527f455243313135355072657365744d696e7465725061757365723a206d7573742060408201527f686176652070617573657220726f6c6520746f20756e70617573650000000000606082015260800190565b60208082526039908201527f455243313135355072657365744d696e7465725061757365723a206d7573742060408201527f686176652070617573657220726f6c6520746f20706175736500000000000000606082015260800190565b60208082526029908201527f455243313135353a2073657474696e6720617070726f76616c20737461747573604082015268103337b91039b2b63360b91b606082015260800190565b60208082526029908201527f455243313135353a206163636f756e747320616e6420696473206c656e677468604082015268040dad2e6dac2e8c6d60bb1b606082015260800190565b60208082526028908201527f455243313135353a2069647320616e6420616d6f756e7473206c656e677468206040820152670dad2e6dac2e8c6d60c31b606082015260800190565b60208082526021908201527f455243313135353a206d696e7420746f20746865207a65726f206164647265736040820152607360f81b606082015260800190565b6020808252602f908201527f416363657373436f6e74726f6c3a2063616e206f6e6c792072656e6f756e636560408201526e103937b632b9903337b91039b2b63360891b606082015260800190565b918252602082015260400190565b60405181810167ffffffffffffffff811182821017156128985761289861295f565b604052919050565b600067ffffffffffffffff8211156128ba576128ba61295f565b5060209081020190565b600082198211156128d7576128d7612949565b500190565b6000828210156128ee576128ee612949565b500390565b60028104600182168061290757607f821691505b6020821081141561292857634e487b7160e01b600052602260045260246000fd5b50919050565b600060001982141561294257612942612949565b5060010190565b634e487b7160e01b600052601160045260246000fd5b634e487b7160e01b600052604160045260246000fd5b60e01c90565b600060443d101561298b57610925565b600481823e6308c379a061299f8251612975565b146129a957610925565b6040513d600319016004823e80513d67ffffffffffffffff81602484011181841117156129d95750505050610925565b828401925082519150808211156129f35750505050610925565b503d83016020828401011115612a0b57505050610925565b601f01601f1916810160200160405291505090565b6001600160e01b031981168114612a3657600080fd5b5056fea26469706673582212206effba8148fcd55834995a7a5987a252572999a3f6133d727ba911a0d3e5d37964736f6c63430008000033",
  "linkReferences": {},
  "deployedLinkReferences": {}
}